{
  "abi": [
    {
      "inputs": [
        {
          "internalType": "address",
          "name": "_ticket",
          "type": "address"
        },
        {
          "internalType": "address",
          "name": "_owner",
          "type": "address"
        },
        {
          "internalType": "string",
          "name": "_eventName",
          "type": "string"
        }
      ],
      "stateMutability": "nonpayable",
      "type": "constructor"
    },
    {
      "anonymous": false,
      "inputs": [
        {
          "indexed": true,
          "internalType": "address",
          "name": "owner",
          "type": "address"
        },
        {
          "indexed": true,
          "internalType": "address",
          "name": "approved",
          "type": "address"
        },
        {
          "indexed": true,
          "internalType": "uint256",
          "name": "tokenId",
          "type": "uint256"
        }
      ],
      "name": "Approval",
      "type": "event"
    },
    {
      "anonymous": false,
      "inputs": [
        {
          "indexed": true,
          "internalType": "address",
          "name": "owner",
          "type": "address"
        },
        {
          "indexed": true,
          "internalType": "address",
          "name": "operator",
          "type": "address"
        },
        {
          "indexed": false,
          "internalType": "bool",
          "name": "approved",
          "type": "bool"
        }
      ],
      "name": "ApprovalForAll",
      "type": "event"
    },
    {
      "anonymous": false,
      "inputs": [
        {
          "indexed": true,
          "internalType": "address",
          "name": "previousOwner",
          "type": "address"
        },
        {
          "indexed": true,
          "internalType": "address",
          "name": "newOwner",
          "type": "address"
        }
      ],
      "name": "OwnershipTransferred",
      "type": "event"
    },
    {
      "anonymous": false,
      "inputs": [
        {
          "indexed": false,
          "internalType": "address",
          "name": "account",
          "type": "address"
        }
      ],
      "name": "Paused",
      "type": "event"
    },
    {
      "anonymous": false,
      "inputs": [
        {
          "indexed": true,
          "internalType": "address",
          "name": "synth",
          "type": "address"
        },
        {
          "indexed": true,
          "internalType": "address",
          "name": "owner",
          "type": "address"
        },
        {
          "indexed": true,
          "internalType": "address",
          "name": "generator",
          "type": "address"
        },
        {
          "indexed": false,
          "internalType": "uint256",
          "name": "synthId",
          "type": "uint256"
        }
      ],
      "name": "SynthMinted",
      "type": "event"
    },
    {
      "anonymous": false,
      "inputs": [
        {
          "indexed": true,
          "internalType": "address",
          "name": "from",
          "type": "address"
        },
        {
          "indexed": true,
          "internalType": "address",
          "name": "to",
          "type": "address"
        },
        {
          "indexed": true,
          "internalType": "uint256",
          "name": "tokenId",
          "type": "uint256"
        }
      ],
      "name": "Transfer",
      "type": "event"
    },
    {
      "anonymous": false,
      "inputs": [
        {
          "indexed": false,
          "internalType": "address",
          "name": "account",
          "type": "address"
        }
      ],
      "name": "Unpaused",
      "type": "event"
    },
    {
      "inputs": [
        {
          "internalType": "address",
          "name": "to",
          "type": "address"
        },
        {
          "internalType": "uint256",
          "name": "tokenId",
          "type": "uint256"
        }
      ],
      "name": "approve",
      "outputs": [],
      "stateMutability": "nonpayable",
      "type": "function"
    },
    {
      "inputs": [
        {
          "internalType": "address",
          "name": "owner",
          "type": "address"
        }
      ],
      "name": "balanceOf",
      "outputs": [
        {
          "internalType": "uint256",
          "name": "",
          "type": "uint256"
        }
      ],
      "stateMutability": "view",
      "type": "function"
    },
    {
      "inputs": [
        {
          "internalType": "address",
          "name": "_wavesAddrs",
          "type": "address"
        }
      ],
      "name": "connectWaves",
      "outputs": [],
      "stateMutability": "nonpayable",
      "type": "function"
    },
    {
      "inputs": [],
      "name": "generateSynth",
      "outputs": [
        {
          "internalType": "address",
          "name": "",
          "type": "address"
        }
      ],
      "stateMutability": "nonpayable",
      "type": "function"
    },
    {
      "inputs": [
        {
          "internalType": "uint256",
          "name": "tokenId",
          "type": "uint256"
        }
      ],
      "name": "getApproved",
      "outputs": [
        {
          "internalType": "address",
          "name": "",
          "type": "address"
        }
      ],
      "stateMutability": "view",
      "type": "function"
    },
    {
      "inputs": [
        {
          "internalType": "address",
          "name": "owner",
          "type": "address"
        },
        {
          "internalType": "address",
          "name": "operator",
          "type": "address"
        }
      ],
      "name": "isApprovedForAll",
      "outputs": [
        {
          "internalType": "bool",
          "name": "",
          "type": "bool"
        }
      ],
      "stateMutability": "view",
      "type": "function"
    },
    {
      "inputs": [],
      "name": "name",
      "outputs": [
        {
          "internalType": "string",
          "name": "",
          "type": "string"
        }
      ],
      "stateMutability": "view",
      "type": "function"
    },
    {
      "inputs": [],
      "name": "owner",
      "outputs": [
        {
          "internalType": "address",
          "name": "",
          "type": "address"
        }
      ],
      "stateMutability": "view",
      "type": "function"
    },
    {
      "inputs": [
        {
          "internalType": "uint256",
          "name": "tokenId",
          "type": "uint256"
        }
      ],
      "name": "ownerOf",
      "outputs": [
        {
          "internalType": "address",
          "name": "",
          "type": "address"
        }
      ],
      "stateMutability": "view",
      "type": "function"
    },
    {
      "inputs": [],
      "name": "pause",
      "outputs": [],
      "stateMutability": "nonpayable",
      "type": "function"
    },
    {
      "inputs": [],
      "name": "paused",
      "outputs": [
        {
          "internalType": "bool",
          "name": "",
          "type": "bool"
        }
      ],
      "stateMutability": "view",
      "type": "function"
    },
    {
      "inputs": [],
      "name": "renounceOwnership",
      "outputs": [],
      "stateMutability": "nonpayable",
      "type": "function"
    },
    {
      "inputs": [
        {
          "internalType": "address",
          "name": "from",
          "type": "address"
        },
        {
          "internalType": "address",
          "name": "to",
          "type": "address"
        },
        {
          "internalType": "uint256",
          "name": "tokenId",
          "type": "uint256"
        }
      ],
      "name": "safeTransferFrom",
      "outputs": [],
      "stateMutability": "nonpayable",
      "type": "function"
    },
    {
      "inputs": [
        {
          "internalType": "address",
          "name": "from",
          "type": "address"
        },
        {
          "internalType": "address",
          "name": "to",
          "type": "address"
        },
        {
          "internalType": "uint256",
          "name": "tokenId",
          "type": "uint256"
        },
        {
          "internalType": "bytes",
          "name": "data",
          "type": "bytes"
        }
      ],
      "name": "safeTransferFrom",
      "outputs": [],
      "stateMutability": "nonpayable",
      "type": "function"
    },
    {
      "inputs": [
        {
          "internalType": "address",
          "name": "operator",
          "type": "address"
        },
        {
          "internalType": "bool",
          "name": "approved",
          "type": "bool"
        }
      ],
      "name": "setApprovalForAll",
      "outputs": [],
      "stateMutability": "nonpayable",
      "type": "function"
    },
    {
      "inputs": [
        {
          "internalType": "bytes4",
          "name": "interfaceId",
          "type": "bytes4"
        }
      ],
      "name": "supportsInterface",
      "outputs": [
        {
          "internalType": "bool",
          "name": "",
          "type": "bool"
        }
      ],
      "stateMutability": "view",
      "type": "function"
    },
    {
      "inputs": [],
      "name": "symbol",
      "outputs": [
        {
          "internalType": "string",
          "name": "",
          "type": "string"
        }
      ],
      "stateMutability": "view",
      "type": "function"
    },
    {
      "inputs": [
        {
          "internalType": "uint256",
          "name": "tokenId",
          "type": "uint256"
        }
      ],
      "name": "tokenURI",
      "outputs": [
        {
          "internalType": "string",
          "name": "",
          "type": "string"
        }
      ],
      "stateMutability": "view",
      "type": "function"
    },
    {
      "inputs": [
        {
          "internalType": "address",
          "name": "from",
          "type": "address"
        },
        {
          "internalType": "address",
          "name": "to",
          "type": "address"
        },
        {
          "internalType": "uint256",
          "name": "tokenId",
          "type": "uint256"
        }
      ],
      "name": "transferFrom",
      "outputs": [],
      "stateMutability": "nonpayable",
      "type": "function"
    },
    {
      "inputs": [
        {
          "internalType": "address",
          "name": "newOwner",
          "type": "address"
        }
      ],
      "name": "transferOwnership",
      "outputs": [],
      "stateMutability": "nonpayable",
      "type": "function"
    },
    {
      "inputs": [],
      "name": "unpause",
      "outputs": [],
      "stateMutability": "nonpayable",
      "type": "function"
    }
  ],
  "bytecode": {
    "object": "0x60806040523480156200001157600080fd5b506040516200201d3803806200201d83398101604081905262000034916200022a565b6040805180820190915260058152640a6b29ca8960db1b602082015281906000620000608382620003b3565b5060016200006f8282620003b3565b50506006805460ff19169055506200008733620000b6565b600780546001600160a01b0319166001600160a01b038516179055620000ad8262000110565b5050506200047f565b600680546001600160a01b03838116610100818102610100600160a81b031985161790945560405193909204169182907f8be0079c531659141344cd1fd0a4f28419497f9722a3daafe3b4186f6b6457e090600090a35050565b6200011a62000193565b6001600160a01b038116620001855760405162461bcd60e51b815260206004820152602660248201527f4f776e61626c653a206e6577206f776e657220697320746865207a65726f206160448201526564647265737360d01b60648201526084015b60405180910390fd5b6200019081620000b6565b50565b6006546001600160a01b03610100909104163314620001f55760405162461bcd60e51b815260206004820181905260248201527f4f776e61626c653a2063616c6c6572206973206e6f7420746865206f776e657260448201526064016200017c565b565b80516001600160a01b03811681146200020f57600080fd5b919050565b634e487b7160e01b600052604160045260246000fd5b6000806000606084860312156200024057600080fd5b6200024b84620001f7565b925060206200025c818601620001f7565b60408601519093506001600160401b03808211156200027a57600080fd5b818701915087601f8301126200028f57600080fd5b815181811115620002a457620002a462000214565b604051601f8201601f19908116603f01168101908382118183101715620002cf57620002cf62000214565b816040528281528a86848701011115620002e857600080fd5b600093505b828410156200030c5784840186015181850187015292850192620002ed565b60008684830101528096505050505050509250925092565b600181811c908216806200033957607f821691505b6020821081036200035a57634e487b7160e01b600052602260045260246000fd5b50919050565b601f821115620003ae57600081815260208120601f850160051c81016020861015620003895750805b601f850160051c820191505b81811015620003aa5782815560010162000395565b5050505b505050565b81516001600160401b03811115620003cf57620003cf62000214565b620003e781620003e0845462000324565b8462000360565b602080601f8311600181146200041f5760008415620004065750858301515b600019600386901b1c1916600185901b178555620003aa565b600085815260208120601f198616915b8281101562000450578886015182559484019460019091019084016200042f565b50858210156200046f5787850151600019600388901b60f8161c191681555b5050505050600190811b01905550565b611b8e806200048f6000396000f3fe608060405234801561001057600080fd5b50600436106101375760003560e01c806370a08231116100b85780639ee24a731161007c5780639ee24a731461025c578063a22cb4651461026f578063b88d4fde14610282578063c87b56dd14610295578063e985e9c5146102a8578063f2fde38b146102bb57600080fd5b806370a082311461020d578063715018a61461022e5780638456cb59146102365780638da5cb5b1461023e57806395d89b411461025457600080fd5b80633ccbc32e116100ff5780633ccbc32e146101cc5780633f4ba83a146101d457806342842e0e146101dc5780635c975abb146101ef5780636352211e146101fa57600080fd5b806301ffc9a71461013c57806306fdde0314610164578063081812fc14610179578063095ea7b3146101a457806323b872dd146101b9575b600080fd5b61014f61014a366004611656565b6102ce565b60405190151581526020015b60405180910390f35b61016c610320565b60405161015b91906116c3565b61018c6101873660046116d6565b6103b2565b6040516001600160a01b03909116815260200161015b565b6101b76101b2366004611704565b6103d9565b005b6101b76101c7366004611730565b6104f3565b61018c610524565b6101b76107ed565b6101b76101ea366004611730565b6107ff565b60065460ff1661014f565b61018c6102083660046116d6565b61081a565b61022061021b366004611771565b61087a565b60405190815260200161015b565b6101b7610900565b6101b7610912565b60065461010090046001600160a01b031661018c565b61016c610922565b6101b761026a366004611771565b610931565b6101b761027d36600461179c565b610bac565b6101b76102903660046117eb565b610bbb565b61016c6102a33660046116d6565b610bf3565b61014f6102b63660046118cb565b610c67565b6101b76102c9366004611771565b610c95565b60006001600160e01b031982166380ac58cd60e01b14806102ff57506001600160e01b03198216635b5e139f60e01b145b8061031a57506301ffc9a760e01b6001600160e01b03198316145b92915050565b60606000805461032f906118f9565b80601f016020809104026020016040519081016040528092919081815260200182805461035b906118f9565b80156103a85780601f1061037d576101008083540402835291602001916103a8565b820191906000526020600020905b81548152906001019060200180831161038b57829003601f168201915b5050505050905090565b60006103bd82610d0e565b506000908152600460205260409020546001600160a01b031690565b60006103e48261081a565b9050806001600160a01b0316836001600160a01b0316036104565760405162461bcd60e51b815260206004820152602160248201527f4552433732313a20617070726f76616c20746f2063757272656e74206f776e656044820152603960f91b60648201526084015b60405180910390fd5b336001600160a01b038216148061047257506104728133610c67565b6104e45760405162461bcd60e51b815260206004820152603e60248201527f4552433732313a20617070726f76652063616c6c6572206973206e6f7420746f60448201527f6b656e206f776e6572206e6f7220617070726f76656420666f7220616c6c0000606482015260840161044d565b6104ee8383610d6d565b505050565b6104fd3382610ddb565b6105195760405162461bcd60e51b815260040161044d90611933565b6104ee838383610e3a565b600061052e610fd6565b6008546001600160a01b03166105865760405162461bcd60e51b815260206004820152601d60248201527f53796e746847656e3a207761766573206e6f7420636f6e6e6563746564000000604482015260640161044d565b6007546040516370a0823160e01b81523360048201526001600160a01b039091169060009082906370a0823190602401602060405180830381865afa1580156105d3573d6000803e3d6000fd5b505050506040513d601f19601f820116820180604052508101906105f79190611981565b116106445760405162461bcd60e51b815260206004820152601960248201527f53796e746847656e3a206d757374206f776e207469636b657400000000000000604482015260640161044d565b3360009081526009602052604090205460ff16156106a45760405162461bcd60e51b815260206004820152601960248201527f53796e746847656e3a20616c726561647920636c61696d656400000000000000604482015260640161044d565b336000908152600960205260408120805460ff191660011790556106c7600a5490565b90507302101dfb77fde026414827fdc604ddaf224f09216106ec600a80546001019055565b6106f6338361101c565b60405163da7323b360e01b8152732d25602551487c3f3354dd80d76d54383a2433586004820152600060248201819052306044830152606482018490526084820181905260c060a483015260c48201819052906001600160a01b0383169063da7323b39060e4016020604051808303816000875af115801561077c573d6000803e3d6000fd5b505050506040513d601f19601f820116820180604052508101906107a0919061199a565b604051848152909150309033906001600160a01b038416907f8298cce5bebc0a9d2419469172195bf3eec5f19e56b3584c835554c4312b99ee9060200160405180910390a4935050505090565b6107f5611036565b6107fd611096565b565b6104ee83838360405180602001604052806000815250610bbb565b6000818152600260205260408120546001600160a01b03168061031a5760405162461bcd60e51b8152602060048201526018602482015277115490cdcc8c4e881a5b9d985b1a59081d1bdad95b88125160421b604482015260640161044d565b60006001600160a01b0382166108e45760405162461bcd60e51b815260206004820152602960248201527f4552433732313a2061646472657373207a65726f206973206e6f7420612076616044820152683634b21037bbb732b960b91b606482015260840161044d565b506001600160a01b031660009081526003602052604090205490565b610908611036565b6107fd60006110e8565b61091a611036565b6107fd611142565b60606001805461032f906118f9565b610939611036565b6008546001600160a01b03161561099c5760405162461bcd60e51b815260206004820152602160248201527f53796e746847656e3a20776176657320616c726561647920636f6e6e656374656044820152601960fa1b606482015260840161044d565b60075460408051636cc25db760e01b8152905183926001600160a01b039081169290841691636cc25db7916004808201926020929091908290030181865afa1580156109ec573d6000803e3d6000fd5b505050506040513d601f19601f82011682018060405250810190610a10919061199a565b6001600160a01b031614610a665760405162461bcd60e51b815260206004820152601960248201527f53796e746847656e3a207469636b6574206d69736d6174636800000000000000604482015260640161044d565b806001600160a01b03166391d14854826001600160a01b031663a217fddf6040518163ffffffff1660e01b8152600401602060405180830381865afa158015610ab3573d6000803e3d6000fd5b505050506040513d601f19601f82011682018060405250810190610ad79190611981565b6040516001600160e01b031960e084901b1681526004810191909152336024820152604401602060405180830381865afa158015610b19573d6000803e3d6000fd5b505050506040513d601f19601f82011682018060405250810190610b3d91906119b7565b610b895760405162461bcd60e51b815260206004820152601860248201527f53796e746847656e3a206f776e6572206d69736d617463680000000000000000604482015260640161044d565b50600880546001600160a01b0319166001600160a01b0392909216919091179055565b610bb733838361117f565b5050565b610bc53383610ddb565b610be15760405162461bcd60e51b815260040161044d90611933565b610bed8484848461124d565b50505050565b6060610bfe82610d0e565b6000610c1560408051602081019091526000815290565b90506000815111610c355760405180602001604052806000815250610c60565b80610c3f84611280565b604051602001610c509291906119d4565b6040516020818303038152906040525b9392505050565b6001600160a01b03918216600090815260056020908152604080832093909416825291909152205460ff1690565b610c9d611036565b6001600160a01b038116610d025760405162461bcd60e51b815260206004820152602660248201527f4f776e61626c653a206e6577206f776e657220697320746865207a65726f206160448201526564647265737360d01b606482015260840161044d565b610d0b816110e8565b50565b6000818152600260205260409020546001600160a01b0316610d0b5760405162461bcd60e51b8152602060048201526018602482015277115490cdcc8c4e881a5b9d985b1a59081d1bdad95b88125160421b604482015260640161044d565b600081815260046020526040902080546001600160a01b0319166001600160a01b0384169081179091558190610da28261081a565b6001600160a01b03167f8c5be1e5ebec7d5bd14f71427d1e84f3dd0314c0f7b2291e5b200ac8c7c3b92560405160405180910390a45050565b600080610de78361081a565b9050806001600160a01b0316846001600160a01b03161480610e0e5750610e0e8185610c67565b80610e325750836001600160a01b0316610e27846103b2565b6001600160a01b0316145b949350505050565b826001600160a01b0316610e4d8261081a565b6001600160a01b031614610eb15760405162461bcd60e51b815260206004820152602560248201527f4552433732313a207472616e736665722066726f6d20696e636f72726563742060448201526437bbb732b960d91b606482015260840161044d565b6001600160a01b038216610f135760405162461bcd60e51b8152602060048201526024808201527f4552433732313a207472616e7366657220746f20746865207a65726f206164646044820152637265737360e01b606482015260840161044d565b610f1e600082610d6d565b6001600160a01b0383166000908152600360205260408120805460019290610f47908490611a19565b90915550506001600160a01b0382166000908152600360205260408120805460019290610f75908490611a2c565b909155505060008181526002602052604080822080546001600160a01b0319166001600160a01b0386811691821790925591518493918716917fddf252ad1be2c89b69c2b068fc378daa952ba7f163c4a11628f55a4df523b3ef91a4505050565b60065460ff16156107fd5760405162461bcd60e51b815260206004820152601060248201526f14185d5cd8589b194e881c185d5cd95960821b604482015260640161044d565b610bb7828260405180602001604052806000815250611381565b6006546001600160a01b036101009091041633146107fd5760405162461bcd60e51b815260206004820181905260248201527f4f776e61626c653a2063616c6c6572206973206e6f7420746865206f776e6572604482015260640161044d565b61109e6113b4565b6006805460ff191690557f5db9ee0a495bf2e6ff9c91a7834c1ba4fdd244a5e8aa4e537bd38aeae4b073aa335b6040516001600160a01b03909116815260200160405180910390a1565b600680546001600160a01b03838116610100818102610100600160a81b031985161790945560405193909204169182907f8be0079c531659141344cd1fd0a4f28419497f9722a3daafe3b4186f6b6457e090600090a35050565b61114a610fd6565b6006805460ff191660011790557f62e78cea01bee320cd4e420270b5ea74000d11b0c9f74754ebdbfc544b05a2586110cb3390565b816001600160a01b0316836001600160a01b0316036111e05760405162461bcd60e51b815260206004820152601960248201527f4552433732313a20617070726f766520746f2063616c6c657200000000000000604482015260640161044d565b6001600160a01b03838116600081815260056020908152604080832094871680845294825291829020805460ff191686151590811790915591519182527f17307eab39ab6107e8899845ad3d59bd9653f200f220920489ca2b5937696c31910160405180910390a3505050565b611258848484610e3a565b611264848484846113fd565b610bed5760405162461bcd60e51b815260040161044d90611a3f565b6060816000036112a75750506040805180820190915260018152600360fc1b602082015290565b8160005b81156112d157806112bb81611a91565b91506112ca9050600a83611ac0565b91506112ab565b60008167ffffffffffffffff8111156112ec576112ec6117d5565b6040519080825280601f01601f191660200182016040528015611316576020820181803683370190505b5090505b8415610e325761132b600183611a19565b9150611338600a86611ad4565b611343906030611a2c565b60f81b81838151811061135857611358611ae8565b60200101906001600160f81b031916908160001a90535061137a600a86611ac0565b945061131a565b61138b83836114fe565b61139860008484846113fd565b6104ee5760405162461bcd60e51b815260040161044d90611a3f565b60065460ff166107fd5760405162461bcd60e51b815260206004820152601460248201527314185d5cd8589b194e881b9bdd081c185d5cd95960621b604482015260640161044d565b60006001600160a01b0384163b156114f357604051630a85bd0160e11b81526001600160a01b0385169063150b7a0290611441903390899088908890600401611afe565b6020604051808303816000875af192505050801561147c575060408051601f3d908101601f1916820190925261147991810190611b3b565b60015b6114d9573d8080156114aa576040519150601f19603f3d011682016040523d82523d6000602084013e6114af565b606091505b5080516000036114d15760405162461bcd60e51b815260040161044d90611a3f565b805181602001fd5b6001600160e01b031916630a85bd0160e11b149050610e32565b506001949350505050565b6001600160a01b0382166115545760405162461bcd60e51b815260206004820181905260248201527f4552433732313a206d696e7420746f20746865207a65726f2061646472657373604482015260640161044d565b6000818152600260205260409020546001600160a01b0316156115b95760405162461bcd60e51b815260206004820152601c60248201527f4552433732313a20746f6b656e20616c7265616479206d696e74656400000000604482015260640161044d565b6001600160a01b03821660009081526003602052604081208054600192906115e2908490611a2c565b909155505060008181526002602052604080822080546001600160a01b0319166001600160a01b03861690811790915590518392907fddf252ad1be2c89b69c2b068fc378daa952ba7f163c4a11628f55a4df523b3ef908290a45050565b6001600160e01b031981168114610d0b57600080fd5b60006020828403121561166857600080fd5b8135610c6081611640565b60005b8381101561168e578181015183820152602001611676565b50506000910152565b600081518084526116af816020860160208601611673565b601f01601f19169290920160200192915050565b602081526000610c606020830184611697565b6000602082840312156116e857600080fd5b5035919050565b6001600160a01b0381168114610d0b57600080fd5b6000806040838503121561171757600080fd5b8235611722816116ef565b946020939093013593505050565b60008060006060848603121561174557600080fd5b8335611750816116ef565b92506020840135611760816116ef565b929592945050506040919091013590565b60006020828403121561178357600080fd5b8135610c60816116ef565b8015158114610d0b57600080fd5b600080604083850312156117af57600080fd5b82356117ba816116ef565b915060208301356117ca8161178e565b809150509250929050565b634e487b7160e01b600052604160045260246000fd5b6000806000806080858703121561180157600080fd5b843561180c816116ef565b9350602085013561181c816116ef565b925060408501359150606085013567ffffffffffffffff8082111561184057600080fd5b818701915087601f83011261185457600080fd5b813581811115611866576118666117d5565b604051601f8201601f19908116603f0116810190838211818310171561188e5761188e6117d5565b816040528281528a60208487010111156118a757600080fd5b82602086016020830137600060208483010152809550505050505092959194509250565b600080604083850312156118de57600080fd5b82356118e9816116ef565b915060208301356117ca816116ef565b600181811c9082168061190d57607f821691505b60208210810361192d57634e487b7160e01b600052602260045260246000fd5b50919050565b6020808252602e908201527f4552433732313a2063616c6c6572206973206e6f7420746f6b656e206f776e6560408201526d1c881b9bdc88185c1c1c9bdd995960921b606082015260800190565b60006020828403121561199357600080fd5b5051919050565b6000602082840312156119ac57600080fd5b8151610c60816116ef565b6000602082840312156119c957600080fd5b8151610c608161178e565b600083516119e6818460208801611673565b8351908301906119fa818360208801611673565b01949350505050565b634e487b7160e01b600052601160045260246000fd5b8181038181111561031a5761031a611a03565b8082018082111561031a5761031a611a03565b60208082526032908201527f4552433732313a207472616e7366657220746f206e6f6e20455243373231526560408201527131b2b4bb32b91034b6b83632b6b2b73a32b960711b606082015260800190565b600060018201611aa357611aa3611a03565b5060010190565b634e487b7160e01b600052601260045260246000fd5b600082611acf57611acf611aaa565b500490565b600082611ae357611ae3611aaa565b500690565b634e487b7160e01b600052603260045260246000fd5b6001600160a01b0385811682528416602082015260408101839052608060608201819052600090611b3190830184611697565b9695505050505050565b600060208284031215611b4d57600080fd5b8151610c608161164056fea26469706673582212201002732ec5c9066d23959008cf2f49a24eb9e245e0b96caea4fb35fce6d46bd464736f6c63430008110033",
    "linkReferences": {}
  },
  "methodIdentifiers": {
    "approve(address,uint256)": "095ea7b3",
    "balanceOf(address)": "70a08231",
    "connectWaves(address)": "9ee24a73",
    "generateSynth()": "3ccbc32e",
    "getApproved(uint256)": "081812fc",
    "isApprovedForAll(address,address)": "e985e9c5",
    "name()": "06fdde03",
    "owner()": "8da5cb5b",
    "ownerOf(uint256)": "6352211e",
    "pause()": "8456cb59",
    "paused()": "5c975abb",
    "renounceOwnership()": "715018a6",
    "safeTransferFrom(address,address,uint256)": "42842e0e",
    "safeTransferFrom(address,address,uint256,bytes)": "b88d4fde",
    "setApprovalForAll(address,bool)": "a22cb465",
    "supportsInterface(bytes4)": "01ffc9a7",
    "symbol()": "95d89b41",
    "tokenURI(uint256)": "c87b56dd",
    "transferFrom(address,address,uint256)": "23b872dd",
    "transferOwnership(address)": "f2fde38b",
    "unpause()": "3f4ba83a"
  },
  "id": 2
}