{
  "abi": [
    {
      "inputs": [],
      "stateMutability": "nonpayable",
      "type": "constructor"
    },
    {
      "anonymous": false,
      "inputs": [
        {
          "indexed": false,
          "internalType": "uint8",
          "name": "version",
          "type": "uint8"
        }
      ],
      "name": "Initialized",
      "type": "event"
    },
    {
      "anonymous": false,
      "inputs": [
        {
          "indexed": true,
          "internalType": "address",
          "name": "previousOwner",
          "type": "address"
        },
        {
          "indexed": true,
          "internalType": "address",
          "name": "newOwner",
          "type": "address"
        }
      ],
      "name": "OwnershipTransferred",
      "type": "event"
    },
    {
      "anonymous": false,
      "inputs": [
        {
          "indexed": false,
          "internalType": "address",
          "name": "account",
          "type": "address"
        }
      ],
      "name": "Paused",
      "type": "event"
    },
    {
      "anonymous": false,
      "inputs": [
        {
          "indexed": false,
          "internalType": "address",
          "name": "account",
          "type": "address"
        }
      ],
      "name": "Unpaused",
      "type": "event"
    },
    {
      "anonymous": false,
      "inputs": [
        {
          "indexed": true,
          "internalType": "address",
          "name": "waves",
          "type": "address"
        },
        {
          "indexed": true,
          "internalType": "address",
          "name": "ticket",
          "type": "address"
        },
        {
          "indexed": true,
          "internalType": "address",
          "name": "owner",
          "type": "address"
        }
      ],
      "name": "WavesMinted",
      "type": "event"
    },
    {
      "inputs": [
        {
          "internalType": "address",
          "name": "_ticketAddrs",
          "type": "address"
        },
        {
          "internalType": "string",
          "name": "_baseUri",
          "type": "string"
        }
      ],
      "name": "createWaves",
      "outputs": [
        {
          "internalType": "address",
          "name": "",
          "type": "address"
        }
      ],
      "stateMutability": "nonpayable",
      "type": "function"
    },
    {
      "inputs": [],
      "name": "initialize",
      "outputs": [],
      "stateMutability": "nonpayable",
      "type": "function"
    },
    {
      "inputs": [],
      "name": "owner",
      "outputs": [
        {
          "internalType": "address",
          "name": "",
          "type": "address"
        }
      ],
      "stateMutability": "view",
      "type": "function"
    },
    {
      "inputs": [],
      "name": "pause",
      "outputs": [],
      "stateMutability": "nonpayable",
      "type": "function"
    },
    {
      "inputs": [],
      "name": "paused",
      "outputs": [
        {
          "internalType": "bool",
          "name": "",
          "type": "bool"
        }
      ],
      "stateMutability": "view",
      "type": "function"
    },
    {
      "inputs": [],
      "name": "renounceOwnership",
      "outputs": [],
      "stateMutability": "nonpayable",
      "type": "function"
    },
    {
      "inputs": [
        {
          "internalType": "address",
          "name": "newOwner",
          "type": "address"
        }
      ],
      "name": "transferOwnership",
      "outputs": [],
      "stateMutability": "nonpayable",
      "type": "function"
    },
    {
      "inputs": [],
      "name": "unpause",
      "outputs": [],
      "stateMutability": "nonpayable",
      "type": "function"
    },
    {
      "inputs": [
        {
          "internalType": "address",
          "name": "",
          "type": "address"
        }
      ],
      "name": "wavesRegistered",
      "outputs": [
        {
          "internalType": "bool",
          "name": "",
          "type": "bool"
        }
      ],
      "stateMutability": "view",
      "type": "function"
    }
  ],
  "bytecode": {
    "object": "0x608060405234801561001057600080fd5b5061001961001e565b6100de565b600054610100900460ff161561008a5760405162461bcd60e51b815260206004820152602760248201527f496e697469616c697a61626c653a20636f6e747261637420697320696e697469604482015266616c697a696e6760c81b606482015260840160405180910390fd5b60005460ff90811610156100dc576000805460ff191660ff9081179091556040519081527f7f26b83ff96e1f2b6a682f133852f6798a09c465da95921460cefb38474024989060200160405180910390a15b565b612f2b806100ed6000396000f3fe60806040523480156200001157600080fd5b50600436106200009f5760003560e01c80638456cb59116200006e5780638456cb5914620000e05780638b3deed114620000ea5780638da5cb5b1462000110578063b81b630a1462000136578063f2fde38b146200014d57600080fd5b80633f4ba83a14620000a45780635c975abb14620000b0578063715018a614620000cc5780638129fc1c14620000d6575b600080fd5b620000ae62000164565b005b60335460ff165b60405190151581526020015b60405180910390f35b620000ae6200017a565b620000ae62000190565b620000ae620002b8565b620000b7620000fb366004620007df565b60976020526000908152604090205460ff1681565b6065546001600160a01b03165b6040516001600160a01b039091168152602001620000c3565b6200011d6200014736600462000806565b620002cc565b620000ae6200015e366004620007df565b62000497565b6200016e62000513565b620001786200056f565b565b6200018462000513565b620001786000620005c3565b600054610100900460ff1615808015620001b15750600054600160ff909116105b80620001cd5750303b158015620001cd575060005460ff166001145b620002365760405162461bcd60e51b815260206004820152602e60248201527f496e697469616c697a61626c653a20636f6e747261637420697320616c72656160448201526d191e481a5b9a5d1a585b1a5e995960921b60648201526084015b60405180910390fd5b6000805460ff1916600117905580156200025a576000805461ff0019166101001790555b6200026462000615565b6200026e62000649565b8015620002b5576000805461ff0019169055604051600181527f7f26b83ff96e1f2b6a682f133852f6798a09c465da95921460cefb38474024989060200160405180910390a15b50565b620002c262000513565b620001786200067d565b6000620002d862000513565b6000849050336001600160a01b0316816001600160a01b0316638da5cb5b6040518163ffffffff1660e01b8152600401602060405180830381865afa15801562000326573d6000803e3d6000fd5b505050506040513d601f19601f820116820180604052508101906200034c919062000892565b6001600160a01b0316146200039b5760405162461bcd60e51b815260206004820152601460248201527336bab9ba103132903a34b1b5b2ba1037bbb732b960611b60448201526064016200022d565b6001600160a01b03851660009081526097602052604090205460ff1615620003fb5760405162461bcd60e51b8152602060048201526012602482015271185b1c9958591e481c9959da5cdd195c995960721b60448201526064016200022d565b60008585856040516200040e90620007bb565b6200041c93929190620008b2565b604051809103906000f08015801562000439573d6000803e3d6000fd5b506001600160a01b03808816600081815260976020526040808220805460ff1916600117905551939450849333938516917ff722cfd142376c4c1bb687f6db6b05bb8bb34bf2ade68f01fddbf96050a7b52991a49695505050505050565b620004a162000513565b6001600160a01b038116620005085760405162461bcd60e51b815260206004820152602660248201527f4f776e61626c653a206e6577206f776e657220697320746865207a65726f206160448201526564647265737360d01b60648201526084016200022d565b620002b581620005c3565b6065546001600160a01b03163314620001785760405162461bcd60e51b815260206004820181905260248201527f4f776e61626c653a2063616c6c6572206973206e6f7420746865206f776e657260448201526064016200022d565b62000579620006bd565b6033805460ff191690557f5db9ee0a495bf2e6ff9c91a7834c1ba4fdd244a5e8aa4e537bd38aeae4b073aa335b6040516001600160a01b03909116815260200160405180910390a1565b606580546001600160a01b038381166001600160a01b0319831681179093556040519116919082907f8be0079c531659141344cd1fd0a4f28419497f9722a3daafe3b4186f6b6457e090600090a35050565b600054610100900460ff166200063f5760405162461bcd60e51b81526004016200022d90620008f2565b6200017862000708565b600054610100900460ff16620006735760405162461bcd60e51b81526004016200022d90620008f2565b620001786200073e565b6200068762000773565b6033805460ff191660011790557f62e78cea01bee320cd4e420270b5ea74000d11b0c9f74754ebdbfc544b05a258620005a63390565b60335460ff16620001785760405162461bcd60e51b815260206004820152601460248201527314185d5cd8589b194e881b9bdd081c185d5cd95960621b60448201526064016200022d565b600054610100900460ff16620007325760405162461bcd60e51b81526004016200022d90620008f2565b6033805460ff19169055565b600054610100900460ff16620007685760405162461bcd60e51b81526004016200022d90620008f2565b6200017833620005c3565b60335460ff1615620001785760405162461bcd60e51b815260206004820152601060248201526f14185d5cd8589b194e881c185d5cd95960821b60448201526064016200022d565b6125b8806200093e83390190565b6001600160a01b0381168114620002b557600080fd5b600060208284031215620007f257600080fd5b8135620007ff81620007c9565b9392505050565b6000806000604084860312156200081c57600080fd5b83356200082981620007c9565b9250602084013567ffffffffffffffff808211156200084757600080fd5b818601915086601f8301126200085c57600080fd5b8135818111156200086c57600080fd5b8760208285010111156200087f57600080fd5b6020830194508093505050509250925092565b600060208284031215620008a557600080fd5b8151620007ff81620007c9565b6001600160a01b03841681526040602082018190528101829052818360608301376000818301606090810191909152601f909201601f1916010192915050565b6020808252602b908201527f496e697469616c697a61626c653a20636f6e7472616374206973206e6f74206960408201526a6e697469616c697a696e6760a81b60608201526080019056fe60806040523480156200001157600080fd5b50604051620025b8380380620025b8833981016040819052620000349162000187565b806200004081620000bb565b50600480546001600160a01b0319166001600160a01b0384161790556200008b60008051602062002598833981519152736bd018b28ce7016b65384e15fac102dbc4190e03620000cd565b620000a66000805160206200259883398151915233620000cd565b620000b3600033620000cd565b5050620003d8565b6002620000c982826200030c565b5050565b60008281526003602090815260408083206001600160a01b038516845290915290205460ff16620000c95760008281526003602090815260408083206001600160a01b03851684529091529020805460ff191660011790556200012d3390565b6001600160a01b0316816001600160a01b0316837f2f8788117e7eff1d82e926ec794901d17c78024a50270940304540a733656f0d60405160405180910390a45050565b634e487b7160e01b600052604160045260246000fd5b600080604083850312156200019b57600080fd5b82516001600160a01b0381168114620001b357600080fd5b602084810151919350906001600160401b0380821115620001d357600080fd5b818601915086601f830112620001e857600080fd5b815181811115620001fd57620001fd62000171565b604051601f8201601f19908116603f0116810190838211818310171562000228576200022862000171565b8160405282815289868487010111156200024157600080fd5b600093505b8284101562000265578484018601518185018701529285019262000246565b60008684830101528096505050505050509250929050565b600181811c908216806200029257607f821691505b602082108103620002b357634e487b7160e01b600052602260045260246000fd5b50919050565b601f8211156200030757600081815260208120601f850160051c81016020861015620002e25750805b601f850160051c820191505b818110156200030357828155600101620002ee565b5050505b505050565b81516001600160401b0381111562000328576200032862000171565b62000340816200033984546200027d565b84620002b9565b602080601f8311600181146200037857600084156200035f5750858301515b600019600386901b1c1916600185901b17855562000303565b600085815260208120601f198616915b82811015620003a95788860151825594840194600190910190840162000388565b5085821015620003c85787850151600019600388901b60f8161c191681555b5050505050600190811b01905550565b6121b080620003e86000396000f3fe608060405234801561001057600080fd5b506004361061012b5760003560e01c80636cc25db7116100ad578063d47a4aad11610071578063d47a4aad146102a9578063d547741f146102d0578063e985e9c5146102e3578063eec3cb471461031f578063f242432a1461033257600080fd5b80636cc25db71461023d5780637b4a219e1461026857806391d148541461027b578063a217fddf1461028e578063a22cb4651461029657600080fd5b80632eb2c2d6116100f45780632eb2c2d6146101d15780632f2ff15d146101e457806336568abe146101f757806338dde06d1461020a5780634e1273f41461021d57600080fd5b8062fdd58e1461013057806301ffc9a7146101565780630e89341c14610179578063248a9ca314610199578063280ebc7d146101bc575b600080fd5b61014361013e366004611693565b610345565b6040519081526020015b60405180910390f35b6101696101643660046116d3565b6103de565b604051901515815260200161014d565b61018c6101873660046116f0565b6103e9565b60405161014d9190611759565b6101436101a73660046116f0565b60009081526003602052604090206001015490565b6101cf6101ca3660046116f0565b61047d565b005b6101cf6101df3660046118c2565b6104b8565b6101cf6101f236600461196c565b610504565b6101cf61020536600461196c565b61052e565b6101cf61021836600461196c565b6105ac565b61023061022b366004611998565b610932565b60405161014d9190611a9e565b600454610250906001600160a01b031681565b6040516001600160a01b03909116815260200161014d565b6101cf610276366004611ac3565b610a5c565b61016961028936600461196c565b610ae5565b610143600081565b6101cf6102a4366004611b50565b610b10565b6101437fd103eb8903d49642604318d36c6bf1cf6c8d0b805603e82444f0eab3c23aedf181565b6101cf6102de36600461196c565b610b1b565b6101696102f1366004611b8c565b6001600160a01b03918216600090815260016020908152604080832093909416825291909152205460ff1690565b6101cf61032d366004611bb6565b610b40565b6101cf610340366004611c07565b610b54565b60006001600160a01b0383166103b55760405162461bcd60e51b815260206004820152602a60248201527f455243313135353a2061646472657373207a65726f206973206e6f742061207660448201526930b634b21037bbb732b960b11b60648201526084015b60405180910390fd5b506000818152602081815260408083206001600160a01b03861684529091529020545b92915050565b60006103d882610b99565b6060600280546103f890611c6c565b80601f016020809104026020016040519081016040528092919081815260200182805461042490611c6c565b80156104715780601f1061044657610100808354040283529160200191610471565b820191906000526020600020905b81548152906001019060200180831161045457829003601f168201915b50505050509050919050565b600061048881610bbe565b506000908152600560205260408120805465ffffffffffff19168155600181018290556002810182905560030155565b6001600160a01b0385163314806104d457506104d485336102f1565b6104f05760405162461bcd60e51b81526004016103ac90611ca6565b6104fd8585858585610bcb565b5050505050565b60008281526003602052604090206001015461051f81610bbe565b6105298383610da8565b505050565b6001600160a01b038116331461059e5760405162461bcd60e51b815260206004820152602f60248201527f416363657373436f6e74726f6c3a2063616e206f6e6c792072656e6f756e636560448201526e103937b632b9903337b91039b2b63360891b60648201526084016103ac565b6105a88282610e2e565b5050565b7fd103eb8903d49642604318d36c6bf1cf6c8d0b805603e82444f0eab3c23aedf16105d681610bbe565b60008381526005602052604090205461ffff1683146106375760405162461bcd60e51b815260206004820152601960248201527f57617665733a207761766520646f65736e27742065786973740000000000000060448201526064016103ac565b60008381526005602052604090205461ffff6201000082048116640100000000909204161161069f5760405162461bcd60e51b815260206004820152601460248201527315d85d995cce881dd85d995cc818db185a5b595960621b60448201526064016103ac565b6106a98284610345565b156106f65760405162461bcd60e51b815260206004820152601b60248201527f57617665733a207573657220616c726561647920636c61696d6564000000000060448201526064016103ac565b600480546040516370a0823160e01b81526001600160a01b038581169382019390935291169060009082906370a0823190602401602060405180830381865afa158015610747573d6000803e3d6000fd5b505050506040513d601f19601f8201168201806040525081019061076b9190611cf5565b116107b05760405162461bcd60e51b815260206004820152601560248201527415d85d995cce881d5cd95c881b9bc81d1a58dad95d605a1b60448201526064016103ac565b6000816001600160a01b03166378e979256040518163ffffffff1660e01b8152600401602060405180830381865afa1580156107f0573d6000803e3d6000fd5b505050506040513d601f19601f820116820180604052508101906108149190611cf5565b90506000826001600160a01b0316633197cbb66040518163ffffffff1660e01b8152600401602060405180830381865afa158015610856573d6000803e3d6000fd5b505050506040513d601f19601f8201168201806040525081019061087a9190611cf5565b9050814211801561088a57508042105b6108d65760405162461bcd60e51b815260206004820152601760248201527f57617665733a206576656e74206e6f742061637469766500000000000000000060448201526064016103ac565b6108f28587600160405180602001604052806000815250610e95565b604051309087906001600160a01b038816907f863a82e344523e32ab2133b706c27cd331f2381069a4878cc07a8673898a2c9590600090a4505050505050565b606081518351146109975760405162461bcd60e51b815260206004820152602960248201527f455243313135353a206163636f756e747320616e6420696473206c656e677468604482015268040dad2e6dac2e8c6d60bb1b60648201526084016103ac565b6000835167ffffffffffffffff8111156109b3576109b361176c565b6040519080825280602002602001820160405280156109dc578160200160208202803683370190505b50905060005b8451811015610a5457610a27858281518110610a0057610a00611d0e565b6020026020010151858381518110610a1a57610a1a611d0e565b6020026020010151610345565b828281518110610a3957610a39611d0e565b6020908102919091010152610a4d81611d3a565b90506109e2565b509392505050565b6000610a6781610bbe565b50805161ffff90811660009081526005602090815260409182902084518154928601519386015185166401000000000265ffff0000000019948616620100000263ffffffff1990941691909516179190911791909116919091178155606082015160018201556080820151600282015560a090910151600390910155565b60009182526003602090815260408084206001600160a01b0393909316845291905290205460ff1690565b6105a8338383610fa9565b600082815260036020526040902060010154610b3681610bbe565b6105298383610e2e565b6000610b4b81610bbe565b6105a882611089565b6001600160a01b038516331480610b705750610b7085336102f1565b610b8c5760405162461bcd60e51b81526004016103ac90611ca6565b6104fd8585858585611095565b60006001600160e01b03198216637965db0b60e01b14806103d857506103d8826111bf565b610bc8813361120f565b50565b8151835114610c2d5760405162461bcd60e51b815260206004820152602860248201527f455243313135353a2069647320616e6420616d6f756e7473206c656e677468206044820152670dad2e6dac2e8c6d60c31b60648201526084016103ac565b6001600160a01b038416610c535760405162461bcd60e51b81526004016103ac90611d53565b3360005b8451811015610d3a576000858281518110610c7457610c74611d0e565b602002602001015190506000858381518110610c9257610c92611d0e565b602090810291909101810151600084815280835260408082206001600160a01b038e168352909352919091205490915081811015610ce25760405162461bcd60e51b81526004016103ac90611d98565b6000838152602081815260408083206001600160a01b038e8116855292528083208585039055908b16825281208054849290610d1f908490611de2565b9250508190555050505080610d3390611d3a565b9050610c57565b50846001600160a01b0316866001600160a01b0316826001600160a01b03167f4a39dc06d4c0dbc64b70af90fd698a233a518aa5d07e595d983b8c0526c8f7fb8787604051610d8a929190611df5565b60405180910390a4610da0818787878787611273565b505050505050565b610db28282610ae5565b6105a85760008281526003602090815260408083206001600160a01b03851684529091529020805460ff19166001179055610dea3390565b6001600160a01b0316816001600160a01b0316837f2f8788117e7eff1d82e926ec794901d17c78024a50270940304540a733656f0d60405160405180910390a45050565b610e388282610ae5565b156105a85760008281526003602090815260408083206001600160a01b0385168085529252808320805460ff1916905551339285917ff6391f5c32d9c69d2a47ea670b442974b53935d1edc7fd64eb21e047a839171b9190a45050565b6001600160a01b038416610ef55760405162461bcd60e51b815260206004820152602160248201527f455243313135353a206d696e7420746f20746865207a65726f206164647265736044820152607360f81b60648201526084016103ac565b336000610f01856113ce565b90506000610f0e856113ce565b90506000868152602081815260408083206001600160a01b038b16845290915281208054879290610f40908490611de2565b909155505060408051878152602081018790526001600160a01b03808a1692600092918716917fc3d58168c5ae7397731d063d5bbf3d657854427343f4c083240f7aacaa2d0f62910160405180910390a4610fa083600089898989611419565b50505050505050565b816001600160a01b0316836001600160a01b03160361101c5760405162461bcd60e51b815260206004820152602960248201527f455243313135353a2073657474696e6720617070726f76616c20737461747573604482015268103337b91039b2b63360b91b60648201526084016103ac565b6001600160a01b03838116600081815260016020908152604080832094871680845294825291829020805460ff191686151590811790915591519182527f17307eab39ab6107e8899845ad3d59bd9653f200f220920489ca2b5937696c31910160405180910390a3505050565b60026105a88282611e69565b6001600160a01b0384166110bb5760405162461bcd60e51b81526004016103ac90611d53565b3360006110c7856113ce565b905060006110d4856113ce565b90506000868152602081815260408083206001600160a01b038c168452909152902054858110156111175760405162461bcd60e51b81526004016103ac90611d98565b6000878152602081815260408083206001600160a01b038d8116855292528083208985039055908a16825281208054889290611154908490611de2565b909155505060408051888152602081018890526001600160a01b03808b16928c821692918816917fc3d58168c5ae7397731d063d5bbf3d657854427343f4c083240f7aacaa2d0f62910160405180910390a46111b4848a8a8a8a8a611419565b505050505050505050565b60006001600160e01b03198216636cdb3d1360e11b14806111f057506001600160e01b031982166303a24d0760e21b145b806103d857506301ffc9a760e01b6001600160e01b03198316146103d8565b6112198282610ae5565b6105a857611231816001600160a01b031660146114d4565b61123c8360206114d4565b60405160200161124d929190611f29565b60408051601f198184030181529082905262461bcd60e51b82526103ac91600401611759565b6001600160a01b0384163b15610da05760405163bc197c8160e01b81526001600160a01b0385169063bc197c81906112b79089908990889088908890600401611f9e565b6020604051808303816000875af19250505080156112f2575060408051601f3d908101601f191682019092526112ef91810190611ffc565b60015b61139e576112fe612019565b806308c379a0036113375750611312612035565b8061131d5750611339565b8060405162461bcd60e51b81526004016103ac9190611759565b505b60405162461bcd60e51b815260206004820152603460248201527f455243313135353a207472616e7366657220746f206e6f6e20455243313135356044820152732932b1b2b4bb32b91034b6b83632b6b2b73a32b960611b60648201526084016103ac565b6001600160e01b0319811663bc197c8160e01b14610fa05760405162461bcd60e51b81526004016103ac906120bf565b6040805160018082528183019092526060916000919060208083019080368337019050509050828160008151811061140857611408611d0e565b602090810291909101015292915050565b6001600160a01b0384163b15610da05760405163f23a6e6160e01b81526001600160a01b0385169063f23a6e619061145d9089908990889088908890600401612107565b6020604051808303816000875af1925050508015611498575060408051601f3d908101601f1916820190925261149591810190611ffc565b60015b6114a4576112fe612019565b6001600160e01b0319811663f23a6e6160e01b14610fa05760405162461bcd60e51b81526004016103ac906120bf565b606060006114e383600261214c565b6114ee906002611de2565b67ffffffffffffffff8111156115065761150661176c565b6040519080825280601f01601f191660200182016040528015611530576020820181803683370190505b509050600360fc1b8160008151811061154b5761154b611d0e565b60200101906001600160f81b031916908160001a905350600f60fb1b8160018151811061157a5761157a611d0e565b60200101906001600160f81b031916908160001a905350600061159e84600261214c565b6115a9906001611de2565b90505b6001811115611621576f181899199a1a9b1b9c1cb0b131b232b360811b85600f16601081106115dd576115dd611d0e565b1a60f81b8282815181106115f3576115f3611d0e565b60200101906001600160f81b031916908160001a90535060049490941c9361161a81612163565b90506115ac565b5083156116705760405162461bcd60e51b815260206004820181905260248201527f537472696e67733a20686578206c656e67746820696e73756666696369656e7460448201526064016103ac565b9392505050565b80356001600160a01b038116811461168e57600080fd5b919050565b600080604083850312156116a657600080fd5b6116af83611677565b946020939093013593505050565b6001600160e01b031981168114610bc857600080fd5b6000602082840312156116e557600080fd5b8135611670816116bd565b60006020828403121561170257600080fd5b5035919050565b60005b8381101561172457818101518382015260200161170c565b50506000910152565b60008151808452611745816020860160208601611709565b601f01601f19169290920160200192915050565b602081526000611670602083018461172d565b634e487b7160e01b600052604160045260246000fd5b601f8201601f1916810167ffffffffffffffff811182821017156117a8576117a861176c565b6040525050565b600067ffffffffffffffff8211156117c9576117c961176c565b5060051b60200190565b600082601f8301126117e457600080fd5b813560206117f1826117af565b6040516117fe8282611782565b83815260059390931b850182019282810191508684111561181e57600080fd5b8286015b848110156118395780358352918301918301611822565b509695505050505050565b600067ffffffffffffffff83111561185e5761185e61176c565b604051611875601f8501601f191660200182611782565b80915083815284848401111561188a57600080fd5b83836020830137600060208583010152509392505050565b600082601f8301126118b357600080fd5b61167083833560208501611844565b600080600080600060a086880312156118da57600080fd5b6118e386611677565b94506118f160208701611677565b9350604086013567ffffffffffffffff8082111561190e57600080fd5b61191a89838a016117d3565b9450606088013591508082111561193057600080fd5b61193c89838a016117d3565b9350608088013591508082111561195257600080fd5b5061195f888289016118a2565b9150509295509295909350565b6000806040838503121561197f57600080fd5b8235915061198f60208401611677565b90509250929050565b600080604083850312156119ab57600080fd5b823567ffffffffffffffff808211156119c357600080fd5b818501915085601f8301126119d757600080fd5b813560206119e4826117af565b6040516119f18282611782565b83815260059390931b8501820192828101915089841115611a1157600080fd5b948201945b83861015611a3657611a2786611677565b82529482019490820190611a16565b96505086013592505080821115611a4c57600080fd5b50611a59858286016117d3565b9150509250929050565b600081518084526020808501945080840160005b83811015611a9357815187529582019590820190600101611a77565b509495945050505050565b6020815260006116706020830184611a63565b803561ffff8116811461168e57600080fd5b600060c08284031215611ad557600080fd5b60405160c0810181811067ffffffffffffffff82111715611af857611af861176c565b604052611b0483611ab1565b8152611b1260208401611ab1565b6020820152611b2360408401611ab1565b6040820152606083013560608201526080830135608082015260a083013560a08201528091505092915050565b60008060408385031215611b6357600080fd5b611b6c83611677565b915060208301358015158114611b8157600080fd5b809150509250929050565b60008060408385031215611b9f57600080fd5b611ba883611677565b915061198f60208401611677565b600060208284031215611bc857600080fd5b813567ffffffffffffffff811115611bdf57600080fd5b8201601f81018413611bf057600080fd5b611bff84823560208401611844565b949350505050565b600080600080600060a08688031215611c1f57600080fd5b611c2886611677565b9450611c3660208701611677565b93506040860135925060608601359150608086013567ffffffffffffffff811115611c6057600080fd5b61195f888289016118a2565b600181811c90821680611c8057607f821691505b602082108103611ca057634e487b7160e01b600052602260045260246000fd5b50919050565b6020808252602f908201527f455243313135353a2063616c6c6572206973206e6f7420746f6b656e206f776e60408201526e195c881b9bdc88185c1c1c9bdd9959608a1b606082015260800190565b600060208284031215611d0757600080fd5b5051919050565b634e487b7160e01b600052603260045260246000fd5b634e487b7160e01b600052601160045260246000fd5b600060018201611d4c57611d4c611d24565b5060010190565b60208082526025908201527f455243313135353a207472616e7366657220746f20746865207a65726f206164604082015264647265737360d81b606082015260800190565b6020808252602a908201527f455243313135353a20696e73756666696369656e742062616c616e636520666f60408201526939103a3930b739b332b960b11b606082015260800190565b808201808211156103d8576103d8611d24565b604081526000611e086040830185611a63565b8281036020840152611e1a8185611a63565b95945050505050565b601f82111561052957600081815260208120601f850160051c81016020861015611e4a5750805b601f850160051c820191505b81811015610da057828155600101611e56565b815167ffffffffffffffff811115611e8357611e8361176c565b611e9781611e918454611c6c565b84611e23565b602080601f831160018114611ecc5760008415611eb45750858301515b600019600386901b1c1916600185901b178555610da0565b600085815260208120601f198616915b82811015611efb57888601518255948401946001909101908401611edc565b5085821015611f195787850151600019600388901b60f8161c191681555b5050505050600190811b01905550565b7f416363657373436f6e74726f6c3a206163636f756e7420000000000000000000815260008351611f61816017850160208801611709565b7001034b99036b4b9b9b4b733903937b6329607d1b6017918401918201528351611f92816028840160208801611709565b01602801949350505050565b6001600160a01b0386811682528516602082015260a060408201819052600090611fca90830186611a63565b8281036060840152611fdc8186611a63565b90508281036080840152611ff0818561172d565b98975050505050505050565b60006020828403121561200e57600080fd5b8151611670816116bd565b600060033d11156120325760046000803e5060005160e01c5b90565b600060443d10156120435790565b6040516003193d81016004833e81513d67ffffffffffffffff816024840111818411171561207357505050505090565b828501915081518181111561208b5750505050505090565b843d87010160208285010111156120a55750505050505090565b6120b460208286010187611782565b509095945050505050565b60208082526028908201527f455243313135353a204552433131353552656365697665722072656a656374656040820152676420746f6b656e7360c01b606082015260800190565b6001600160a01b03868116825285166020820152604081018490526060810183905260a0608082018190526000906121419083018461172d565b979650505050505050565b80820281158282048414176103d8576103d8611d24565b60008161217257612172611d24565b50600019019056fea26469706673582212202035b7706a60e083446ab64147cbc1e8ed627f48eb9c24906ad6d00ec28a5f7664736f6c63430008110033d103eb8903d49642604318d36c6bf1cf6c8d0b805603e82444f0eab3c23aedf1a26469706673582212200747bd477c99c119b727169e021ac15cc8bbb49e4b94749d4773dc98e971029664736f6c63430008110033",
    "linkReferences": {}
  },
  "methodIdentifiers": {
    "createWaves(address,string)": "b81b630a",
    "initialize()": "8129fc1c",
    "owner()": "8da5cb5b",
    "pause()": "8456cb59",
    "paused()": "5c975abb",
    "renounceOwnership()": "715018a6",
    "transferOwnership(address)": "f2fde38b",
    "unpause()": "3f4ba83a",
    "wavesRegistered(address)": "8b3deed1"
  },
  "id": 7
}