{
  "abi": [
    {
      "inputs": [
        {
          "internalType": "address",
          "name": "_ticket",
          "type": "address"
        },
        {
          "internalType": "address",
          "name": "_owner",
          "type": "address"
        },
        {
          "internalType": "string",
          "name": "_baseUri",
          "type": "string"
        }
      ],
      "stateMutability": "nonpayable",
      "type": "constructor"
    },
    {
      "anonymous": false,
      "inputs": [
        {
          "indexed": true,
          "internalType": "address",
          "name": "account",
          "type": "address"
        },
        {
          "indexed": true,
          "internalType": "address",
          "name": "operator",
          "type": "address"
        },
        {
          "indexed": false,
          "internalType": "bool",
          "name": "approved",
          "type": "bool"
        }
      ],
      "name": "ApprovalForAll",
      "type": "event"
    },
    {
      "anonymous": false,
      "inputs": [
        {
          "indexed": true,
          "internalType": "bytes32",
          "name": "role",
          "type": "bytes32"
        },
        {
          "indexed": true,
          "internalType": "bytes32",
          "name": "previousAdminRole",
          "type": "bytes32"
        },
        {
          "indexed": true,
          "internalType": "bytes32",
          "name": "newAdminRole",
          "type": "bytes32"
        }
      ],
      "name": "RoleAdminChanged",
      "type": "event"
    },
    {
      "anonymous": false,
      "inputs": [
        {
          "indexed": true,
          "internalType": "bytes32",
          "name": "role",
          "type": "bytes32"
        },
        {
          "indexed": true,
          "internalType": "address",
          "name": "account",
          "type": "address"
        },
        {
          "indexed": true,
          "internalType": "address",
          "name": "sender",
          "type": "address"
        }
      ],
      "name": "RoleGranted",
      "type": "event"
    },
    {
      "anonymous": false,
      "inputs": [
        {
          "indexed": true,
          "internalType": "bytes32",
          "name": "role",
          "type": "bytes32"
        },
        {
          "indexed": true,
          "internalType": "address",
          "name": "account",
          "type": "address"
        },
        {
          "indexed": true,
          "internalType": "address",
          "name": "sender",
          "type": "address"
        }
      ],
      "name": "RoleRevoked",
      "type": "event"
    },
    {
      "anonymous": false,
      "inputs": [
        {
          "indexed": true,
          "internalType": "address",
          "name": "operator",
          "type": "address"
        },
        {
          "indexed": true,
          "internalType": "address",
          "name": "from",
          "type": "address"
        },
        {
          "indexed": true,
          "internalType": "address",
          "name": "to",
          "type": "address"
        },
        {
          "indexed": false,
          "internalType": "uint256[]",
          "name": "ids",
          "type": "uint256[]"
        },
        {
          "indexed": false,
          "internalType": "uint256[]",
          "name": "values",
          "type": "uint256[]"
        }
      ],
      "name": "TransferBatch",
      "type": "event"
    },
    {
      "anonymous": false,
      "inputs": [
        {
          "indexed": true,
          "internalType": "address",
          "name": "operator",
          "type": "address"
        },
        {
          "indexed": true,
          "internalType": "address",
          "name": "from",
          "type": "address"
        },
        {
          "indexed": true,
          "internalType": "address",
          "name": "to",
          "type": "address"
        },
        {
          "indexed": false,
          "internalType": "uint256",
          "name": "id",
          "type": "uint256"
        },
        {
          "indexed": false,
          "internalType": "uint256",
          "name": "value",
          "type": "uint256"
        }
      ],
      "name": "TransferSingle",
      "type": "event"
    },
    {
      "anonymous": false,
      "inputs": [
        {
          "indexed": false,
          "internalType": "string",
          "name": "value",
          "type": "string"
        },
        {
          "indexed": true,
          "internalType": "uint256",
          "name": "id",
          "type": "uint256"
        }
      ],
      "name": "URI",
      "type": "event"
    },
    {
      "anonymous": false,
      "inputs": [
        {
          "indexed": true,
          "internalType": "address",
          "name": "to",
          "type": "address"
        },
        {
          "indexed": true,
          "internalType": "address",
          "name": "waves",
          "type": "address"
        },
        {
          "indexed": true,
          "internalType": "uint256",
          "name": "tokenId",
          "type": "uint256"
        }
      ],
      "name": "WaveRewarded",
      "type": "event"
    },
    {
      "inputs": [],
      "name": "DEFAULT_ADMIN_ROLE",
      "outputs": [
        {
          "internalType": "bytes32",
          "name": "",
          "type": "bytes32"
        }
      ],
      "stateMutability": "view",
      "type": "function"
    },
    {
      "inputs": [],
      "name": "WAVE_REWARDER_ROLE",
      "outputs": [
        {
          "internalType": "bytes32",
          "name": "",
          "type": "bytes32"
        }
      ],
      "stateMutability": "view",
      "type": "function"
    },
    {
      "inputs": [
        {
          "components": [
            {
              "internalType": "uint16",
              "name": "id",
              "type": "uint16"
            },
            {
              "internalType": "uint16",
              "name": "maxAmount",
              "type": "uint16"
            },
            {
              "internalType": "uint16",
              "name": "claimedAmount",
              "type": "uint16"
            },
            {
              "internalType": "uint256",
              "name": "startTime",
              "type": "uint256"
            },
            {
              "internalType": "uint256",
              "name": "setTime",
              "type": "uint256"
            },
            {
              "internalType": "bytes",
              "name": "data",
              "type": "bytes"
            }
          ],
          "internalType": "struct Wave",
          "name": "_wave",
          "type": "tuple"
        }
      ],
      "name": "addWave",
      "outputs": [],
      "stateMutability": "nonpayable",
      "type": "function"
    },
    {
      "inputs": [
        {
          "internalType": "address",
          "name": "account",
          "type": "address"
        },
        {
          "internalType": "uint256",
          "name": "id",
          "type": "uint256"
        }
      ],
      "name": "balanceOf",
      "outputs": [
        {
          "internalType": "uint256",
          "name": "",
          "type": "uint256"
        }
      ],
      "stateMutability": "view",
      "type": "function"
    },
    {
      "inputs": [
        {
          "internalType": "address[]",
          "name": "accounts",
          "type": "address[]"
        },
        {
          "internalType": "uint256[]",
          "name": "ids",
          "type": "uint256[]"
        }
      ],
      "name": "balanceOfBatch",
      "outputs": [
        {
          "internalType": "uint256[]",
          "name": "",
          "type": "uint256[]"
        }
      ],
      "stateMutability": "view",
      "type": "function"
    },
    {
      "inputs": [
        {
          "internalType": "bytes32",
          "name": "role",
          "type": "bytes32"
        }
      ],
      "name": "getRoleAdmin",
      "outputs": [
        {
          "internalType": "bytes32",
          "name": "",
          "type": "bytes32"
        }
      ],
      "stateMutability": "view",
      "type": "function"
    },
    {
      "inputs": [
        {
          "internalType": "bytes32",
          "name": "role",
          "type": "bytes32"
        },
        {
          "internalType": "address",
          "name": "account",
          "type": "address"
        }
      ],
      "name": "grantRole",
      "outputs": [],
      "stateMutability": "nonpayable",
      "type": "function"
    },
    {
      "inputs": [
        {
          "internalType": "bytes32",
          "name": "role",
          "type": "bytes32"
        },
        {
          "internalType": "address",
          "name": "account",
          "type": "address"
        }
      ],
      "name": "hasRole",
      "outputs": [
        {
          "internalType": "bool",
          "name": "",
          "type": "bool"
        }
      ],
      "stateMutability": "view",
      "type": "function"
    },
    {
      "inputs": [
        {
          "internalType": "address",
          "name": "account",
          "type": "address"
        },
        {
          "internalType": "address",
          "name": "operator",
          "type": "address"
        }
      ],
      "name": "isApprovedForAll",
      "outputs": [
        {
          "internalType": "bool",
          "name": "",
          "type": "bool"
        }
      ],
      "stateMutability": "view",
      "type": "function"
    },
    {
      "inputs": [
        {
          "internalType": "uint256",
          "name": "_id",
          "type": "uint256"
        }
      ],
      "name": "removeWave",
      "outputs": [],
      "stateMutability": "nonpayable",
      "type": "function"
    },
    {
      "inputs": [
        {
          "internalType": "bytes32",
          "name": "role",
          "type": "bytes32"
        },
        {
          "internalType": "address",
          "name": "account",
          "type": "address"
        }
      ],
      "name": "renounceRole",
      "outputs": [],
      "stateMutability": "nonpayable",
      "type": "function"
    },
    {
      "inputs": [
        {
          "internalType": "bytes32",
          "name": "role",
          "type": "bytes32"
        },
        {
          "internalType": "address",
          "name": "account",
          "type": "address"
        }
      ],
      "name": "revokeRole",
      "outputs": [],
      "stateMutability": "nonpayable",
      "type": "function"
    },
    {
      "inputs": [
        {
          "internalType": "uint256",
          "name": "id",
          "type": "uint256"
        },
        {
          "internalType": "address",
          "name": "to",
          "type": "address"
        }
      ],
      "name": "rewardWave",
      "outputs": [],
      "stateMutability": "nonpayable",
      "type": "function"
    },
    {
      "inputs": [
        {
          "internalType": "address",
          "name": "from",
          "type": "address"
        },
        {
          "internalType": "address",
          "name": "to",
          "type": "address"
        },
        {
          "internalType": "uint256[]",
          "name": "ids",
          "type": "uint256[]"
        },
        {
          "internalType": "uint256[]",
          "name": "amounts",
          "type": "uint256[]"
        },
        {
          "internalType": "bytes",
          "name": "data",
          "type": "bytes"
        }
      ],
      "name": "safeBatchTransferFrom",
      "outputs": [],
      "stateMutability": "nonpayable",
      "type": "function"
    },
    {
      "inputs": [
        {
          "internalType": "address",
          "name": "from",
          "type": "address"
        },
        {
          "internalType": "address",
          "name": "to",
          "type": "address"
        },
        {
          "internalType": "uint256",
          "name": "id",
          "type": "uint256"
        },
        {
          "internalType": "uint256",
          "name": "amount",
          "type": "uint256"
        },
        {
          "internalType": "bytes",
          "name": "data",
          "type": "bytes"
        }
      ],
      "name": "safeTransferFrom",
      "outputs": [],
      "stateMutability": "nonpayable",
      "type": "function"
    },
    {
      "inputs": [
        {
          "internalType": "address",
          "name": "operator",
          "type": "address"
        },
        {
          "internalType": "bool",
          "name": "approved",
          "type": "bool"
        }
      ],
      "name": "setApprovalForAll",
      "outputs": [],
      "stateMutability": "nonpayable",
      "type": "function"
    },
    {
      "inputs": [
        {
          "internalType": "bytes4",
          "name": "interfaceId",
          "type": "bytes4"
        }
      ],
      "name": "supportsInterface",
      "outputs": [
        {
          "internalType": "bool",
          "name": "",
          "type": "bool"
        }
      ],
      "stateMutability": "view",
      "type": "function"
    },
    {
      "inputs": [],
      "name": "ticket",
      "outputs": [
        {
          "internalType": "address",
          "name": "",
          "type": "address"
        }
      ],
      "stateMutability": "view",
      "type": "function"
    },
    {
      "inputs": [
        {
          "internalType": "string",
          "name": "newuri",
          "type": "string"
        }
      ],
      "name": "updateEventJSON",
      "outputs": [],
      "stateMutability": "nonpayable",
      "type": "function"
    },
    {
      "inputs": [
        {
          "internalType": "uint256",
          "name": "",
          "type": "uint256"
        }
      ],
      "name": "uri",
      "outputs": [
        {
          "internalType": "string",
          "name": "",
          "type": "string"
        }
      ],
      "stateMutability": "view",
      "type": "function"
    }
  ],
  "bytecode": {
    "object": "0x60806040523480156200001157600080fd5b50604051620026b0380380620026b08339810160408190526200003491620001d4565b806200004081620000eb565b50600480546001600160a01b0319166001600160a01b0385161790556200008b60008051602062002690833981519152736bd018b28ce7016b65384e15fac102dbc4190e03620000fd565b620000ba60008051602062002690833981519152734a486c866050dd2e40410b693609d69096d5661b620000fd565b620000d56000805160206200269083398151915283620000fd565b620000e2600083620000fd565b50505062000429565b6002620000f982826200035d565b5050565b60008281526003602090815260408083206001600160a01b038516845290915290205460ff16620000f95760008281526003602090815260408083206001600160a01b03851684529091529020805460ff191660011790556200015d3390565b6001600160a01b0316816001600160a01b0316837f2f8788117e7eff1d82e926ec794901d17c78024a50270940304540a733656f0d60405160405180910390a45050565b80516001600160a01b0381168114620001b957600080fd5b919050565b634e487b7160e01b600052604160045260246000fd5b600080600060608486031215620001ea57600080fd5b620001f584620001a1565b9250602062000206818601620001a1565b60408601519093506001600160401b03808211156200022457600080fd5b818701915087601f8301126200023957600080fd5b8151818111156200024e576200024e620001be565b604051601f8201601f19908116603f01168101908382118183101715620002795762000279620001be565b816040528281528a868487010111156200029257600080fd5b600093505b82841015620002b6578484018601518185018701529285019262000297565b60008684830101528096505050505050509250925092565b600181811c90821680620002e357607f821691505b6020821081036200030457634e487b7160e01b600052602260045260246000fd5b50919050565b601f8211156200035857600081815260208120601f850160051c81016020861015620003335750805b601f850160051c820191505b8181101562000354578281556001016200033f565b5050505b505050565b81516001600160401b03811115620003795762000379620001be565b62000391816200038a8454620002ce565b846200030a565b602080601f831160018114620003c95760008415620003b05750858301515b600019600386901b1c1916600185901b17855562000354565b600085815260208120601f198616915b82811015620003fa57888601518255948401946001909101908401620003d9565b5085821015620004195787850151600019600388901b60f8161c191681555b5050505050600190811b01905550565b61225780620004396000396000f3fe608060405234801561001057600080fd5b506004361061012b5760003560e01c80634e1273f4116100ad578063d47a4aad11610071578063d47a4aad146102a9578063d547741f146102d0578063e985e9c5146102e3578063eec3cb471461031f578063f242432a1461033257600080fd5b80634e1273f4146102305780636cc25db71461025057806391d148541461027b578063a217fddf1461028e578063a22cb4651461029657600080fd5b8063280ebc7d116100f4578063280ebc7d146101d15780632eb2c2d6146101e45780632f2ff15d146101f757806336568abe1461020a57806338dde06d1461021d57600080fd5b8062fdd58e1461013057806301ffc9a71461015657806306814772146101795780630e89341c1461018e578063248a9ca3146101ae575b600080fd5b61014361013e3660046116f4565b610345565b6040519081526020015b60405180910390f35b610169610164366004611734565b6103de565b604051901515815260200161014d565b61018c610187366004611847565b6103e9565b005b6101a161019c3660046118fe565b610481565b60405161014d9190611967565b6101436101bc3660046118fe565b60009081526003602052604090206001015490565b61018c6101df3660046118fe565b610515565b61018c6101f2366004611a0e565b61055d565b61018c610205366004611ab7565b6105a2565b61018c610218366004611ab7565b6105cc565b61018c61022b366004611ab7565b61064a565b61024361023e366004611ae3565b6109d0565b60405161014d9190611be8565b600454610263906001600160a01b031681565b6040516001600160a01b03909116815260200161014d565b610169610289366004611ab7565b610af9565b610143600081565b61018c6102a4366004611bfb565b610b24565b6101437fd103eb8903d49642604318d36c6bf1cf6c8d0b805603e82444f0eab3c23aedf181565b61018c6102de366004611ab7565b610b2f565b6101696102f1366004611c37565b6001600160a01b03918216600090815260016020908152604080832093909416825291909152205460ff1690565b61018c61032d366004611c61565b610b54565b61018c610340366004611cb1565b610b68565b60006001600160a01b0383166103b55760405162461bcd60e51b815260206004820152602a60248201527f455243313135353a2061646472657373207a65726f206973206e6f742061207660448201526930b634b21037bbb732b960b11b60648201526084015b60405180910390fd5b506000818152602081815260408083206001600160a01b03861684529091529020545b92915050565b60006103d882610bad565b60006103f481610bd2565b815161ffff90811660009081526005602090815260409182902085518154928701519387015185166401000000000265ffff0000000019948616620100000263ffffffff1990941691909516179190911791909116919091178155606083015160018201556080830151600282015560a0830151839190600382019061047a9082611d95565b5050505050565b60606002805461049090611d15565b80601f01602080910402602001604051908101604052809291908181526020018280546104bc90611d15565b80156105095780601f106104de57610100808354040283529160200191610509565b820191906000526020600020905b8154815290600101906020018083116104ec57829003601f168201915b50505050509050919050565b600061052081610bd2565b6000828152600560205260408120805465ffffffffffff19168155600181018290556002810182905590610557600383018261168a565b50505050565b6001600160a01b038516331480610579575061057985336102f1565b6105955760405162461bcd60e51b81526004016103ac90611e54565b61047a8585858585610bdf565b6000828152600360205260409020600101546105bd81610bd2565b6105c78383610dbc565b505050565b6001600160a01b038116331461063c5760405162461bcd60e51b815260206004820152602f60248201527f416363657373436f6e74726f6c3a2063616e206f6e6c792072656e6f756e636560448201526e103937b632b9903337b91039b2b63360891b60648201526084016103ac565b6106468282610e42565b5050565b7fd103eb8903d49642604318d36c6bf1cf6c8d0b805603e82444f0eab3c23aedf161067481610bd2565b60008381526005602052604090205461ffff1683146106d55760405162461bcd60e51b815260206004820152601960248201527f57617665733a207761766520646f65736e27742065786973740000000000000060448201526064016103ac565b60008381526005602052604090205461ffff6201000082048116640100000000909204161161073d5760405162461bcd60e51b815260206004820152601460248201527315d85d995cce881dd85d995cc818db185a5b595960621b60448201526064016103ac565b6107478284610345565b156107945760405162461bcd60e51b815260206004820152601b60248201527f57617665733a207573657220616c726561647920636c61696d6564000000000060448201526064016103ac565b600480546040516370a0823160e01b81526001600160a01b038581169382019390935291169060009082906370a0823190602401602060405180830381865afa1580156107e5573d6000803e3d6000fd5b505050506040513d601f19601f820116820180604052508101906108099190611ea3565b1161084e5760405162461bcd60e51b815260206004820152601560248201527415d85d995cce881d5cd95c881b9bc81d1a58dad95d605a1b60448201526064016103ac565b6000816001600160a01b03166378e979256040518163ffffffff1660e01b8152600401602060405180830381865afa15801561088e573d6000803e3d6000fd5b505050506040513d601f19601f820116820180604052508101906108b29190611ea3565b90506000826001600160a01b0316633197cbb66040518163ffffffff1660e01b8152600401602060405180830381865afa1580156108f4573d6000803e3d6000fd5b505050506040513d601f19601f820116820180604052508101906109189190611ea3565b9050814211801561092857508042105b6109745760405162461bcd60e51b815260206004820152601760248201527f57617665733a206576656e74206e6f742061637469766500000000000000000060448201526064016103ac565b6109908587600160405180602001604052806000815250610ea9565b604051869030906001600160a01b038816907f27cb19c4a6b7975c9fa42fde1507d119198c72ffa228d7908f48052a410073bc90600090a4505050505050565b60608151835114610a355760405162461bcd60e51b815260206004820152602960248201527f455243313135353a206163636f756e747320616e6420696473206c656e677468604482015268040dad2e6dac2e8c6d60bb1b60648201526084016103ac565b600083516001600160401b03811115610a5057610a50611751565b604051908082528060200260200182016040528015610a79578160200160208202803683370190505b50905060005b8451811015610af157610ac4858281518110610a9d57610a9d611ebc565b6020026020010151858381518110610ab757610ab7611ebc565b6020026020010151610345565b828281518110610ad657610ad6611ebc565b6020908102919091010152610aea81611ee8565b9050610a7f565b509392505050565b60009182526003602090815260408084206001600160a01b0393909316845291905290205460ff1690565b610646338383610fbd565b600082815260036020526040902060010154610b4a81610bd2565b6105c78383610e42565b6000610b5f81610bd2565b6106468261109d565b6001600160a01b038516331480610b845750610b8485336102f1565b610ba05760405162461bcd60e51b81526004016103ac90611e54565b61047a85858585856110a9565b60006001600160e01b03198216637965db0b60e01b14806103d857506103d8826111d3565b610bdc8133611223565b50565b8151835114610c415760405162461bcd60e51b815260206004820152602860248201527f455243313135353a2069647320616e6420616d6f756e7473206c656e677468206044820152670dad2e6dac2e8c6d60c31b60648201526084016103ac565b6001600160a01b038416610c675760405162461bcd60e51b81526004016103ac90611f01565b3360005b8451811015610d4e576000858281518110610c8857610c88611ebc565b602002602001015190506000858381518110610ca657610ca6611ebc565b602090810291909101810151600084815280835260408082206001600160a01b038e168352909352919091205490915081811015610cf65760405162461bcd60e51b81526004016103ac90611f46565b6000838152602081815260408083206001600160a01b038e8116855292528083208585039055908b16825281208054849290610d33908490611f90565b9250508190555050505080610d4790611ee8565b9050610c6b565b50846001600160a01b0316866001600160a01b0316826001600160a01b03167f4a39dc06d4c0dbc64b70af90fd698a233a518aa5d07e595d983b8c0526c8f7fb8787604051610d9e929190611fa3565b60405180910390a4610db4818787878787611287565b505050505050565b610dc68282610af9565b6106465760008281526003602090815260408083206001600160a01b03851684529091529020805460ff19166001179055610dfe3390565b6001600160a01b0316816001600160a01b0316837f2f8788117e7eff1d82e926ec794901d17c78024a50270940304540a733656f0d60405160405180910390a45050565b610e4c8282610af9565b156106465760008281526003602090815260408083206001600160a01b0385168085529252808320805460ff1916905551339285917ff6391f5c32d9c69d2a47ea670b442974b53935d1edc7fd64eb21e047a839171b9190a45050565b6001600160a01b038416610f095760405162461bcd60e51b815260206004820152602160248201527f455243313135353a206d696e7420746f20746865207a65726f206164647265736044820152607360f81b60648201526084016103ac565b336000610f15856113e2565b90506000610f22856113e2565b90506000868152602081815260408083206001600160a01b038b16845290915281208054879290610f54908490611f90565b909155505060408051878152602081018790526001600160a01b03808a1692600092918716917fc3d58168c5ae7397731d063d5bbf3d657854427343f4c083240f7aacaa2d0f62910160405180910390a4610fb48360008989898961142d565b50505050505050565b816001600160a01b0316836001600160a01b0316036110305760405162461bcd60e51b815260206004820152602960248201527f455243313135353a2073657474696e6720617070726f76616c20737461747573604482015268103337b91039b2b63360b91b60648201526084016103ac565b6001600160a01b03838116600081815260016020908152604080832094871680845294825291829020805460ff191686151590811790915591519182527f17307eab39ab6107e8899845ad3d59bd9653f200f220920489ca2b5937696c31910160405180910390a3505050565b60026106468282611d95565b6001600160a01b0384166110cf5760405162461bcd60e51b81526004016103ac90611f01565b3360006110db856113e2565b905060006110e8856113e2565b90506000868152602081815260408083206001600160a01b038c1684529091529020548581101561112b5760405162461bcd60e51b81526004016103ac90611f46565b6000878152602081815260408083206001600160a01b038d8116855292528083208985039055908a16825281208054889290611168908490611f90565b909155505060408051888152602081018890526001600160a01b03808b16928c821692918816917fc3d58168c5ae7397731d063d5bbf3d657854427343f4c083240f7aacaa2d0f62910160405180910390a46111c8848a8a8a8a8a61142d565b505050505050505050565b60006001600160e01b03198216636cdb3d1360e11b148061120457506001600160e01b031982166303a24d0760e21b145b806103d857506301ffc9a760e01b6001600160e01b03198316146103d8565b61122d8282610af9565b61064657611245816001600160a01b031660146114e8565b6112508360206114e8565b604051602001611261929190611fd1565b60408051601f198184030181529082905262461bcd60e51b82526103ac91600401611967565b6001600160a01b0384163b15610db45760405163bc197c8160e01b81526001600160a01b0385169063bc197c81906112cb9089908990889088908890600401612046565b6020604051808303816000875af1925050508015611306575060408051601f3d908101601f19168201909252611303918101906120a4565b60015b6113b2576113126120c1565b806308c379a00361134b57506113266120dd565b80611331575061134d565b8060405162461bcd60e51b81526004016103ac9190611967565b505b60405162461bcd60e51b815260206004820152603460248201527f455243313135353a207472616e7366657220746f206e6f6e20455243313135356044820152732932b1b2b4bb32b91034b6b83632b6b2b73a32b960611b60648201526084016103ac565b6001600160e01b0319811663bc197c8160e01b14610fb45760405162461bcd60e51b81526004016103ac90612166565b6040805160018082528183019092526060916000919060208083019080368337019050509050828160008151811061141c5761141c611ebc565b602090810291909101015292915050565b6001600160a01b0384163b15610db45760405163f23a6e6160e01b81526001600160a01b0385169063f23a6e619061147190899089908890889088906004016121ae565b6020604051808303816000875af19250505080156114ac575060408051601f3d908101601f191682019092526114a9918101906120a4565b60015b6114b8576113126120c1565b6001600160e01b0319811663f23a6e6160e01b14610fb45760405162461bcd60e51b81526004016103ac90612166565b606060006114f78360026121f3565b611502906002611f90565b6001600160401b0381111561151957611519611751565b6040519080825280601f01601f191660200182016040528015611543576020820181803683370190505b509050600360fc1b8160008151811061155e5761155e611ebc565b60200101906001600160f81b031916908160001a905350600f60fb1b8160018151811061158d5761158d611ebc565b60200101906001600160f81b031916908160001a90535060006115b18460026121f3565b6115bc906001611f90565b90505b6001811115611634576f181899199a1a9b1b9c1cb0b131b232b360811b85600f16601081106115f0576115f0611ebc565b1a60f81b82828151811061160657611606611ebc565b60200101906001600160f81b031916908160001a90535060049490941c9361162d8161220a565b90506115bf565b5083156116835760405162461bcd60e51b815260206004820181905260248201527f537472696e67733a20686578206c656e67746820696e73756666696369656e7460448201526064016103ac565b9392505050565b50805461169690611d15565b6000825580601f106116a6575050565b601f016020900490600052602060002090810190610bdc91905b808211156116d457600081556001016116c0565b5090565b80356001600160a01b03811681146116ef57600080fd5b919050565b6000806040838503121561170757600080fd5b611710836116d8565b946020939093013593505050565b6001600160e01b031981168114610bdc57600080fd5b60006020828403121561174657600080fd5b81356116838161171e565b634e487b7160e01b600052604160045260246000fd5b60c081018181106001600160401b038211171561178657611786611751565b60405250565b601f8201601f191681016001600160401b03811182821017156117b1576117b1611751565b6040525050565b803561ffff811681146116ef57600080fd5b60006001600160401b038311156117e3576117e3611751565b6040516117fa601f8501601f19166020018261178c565b80915083815284848401111561180f57600080fd5b83836020830137600060208583010152509392505050565b600082601f83011261183857600080fd5b611683838335602085016117ca565b60006020828403121561185957600080fd5b81356001600160401b038082111561187057600080fd5b9083019060c0828603121561188457600080fd5b60405161189081611767565b611899836117b8565b81526118a7602084016117b8565b60208201526118b8604084016117b8565b6040820152606083013560608201526080830135608082015260a0830135828111156118e357600080fd5b6118ef87828601611827565b60a08301525095945050505050565b60006020828403121561191057600080fd5b5035919050565b60005b8381101561193257818101518382015260200161191a565b50506000910152565b60008151808452611953816020860160208601611917565b601f01601f19169290920160200192915050565b602081526000611683602083018461193b565b60006001600160401b0382111561199357611993611751565b5060051b60200190565b600082601f8301126119ae57600080fd5b813560206119bb8261197a565b6040516119c8828261178c565b83815260059390931b85018201928281019150868411156119e857600080fd5b8286015b84811015611a0357803583529183019183016119ec565b509695505050505050565b600080600080600060a08688031215611a2657600080fd5b611a2f866116d8565b9450611a3d602087016116d8565b935060408601356001600160401b0380821115611a5957600080fd5b611a6589838a0161199d565b94506060880135915080821115611a7b57600080fd5b611a8789838a0161199d565b93506080880135915080821115611a9d57600080fd5b50611aaa88828901611827565b9150509295509295909350565b60008060408385031215611aca57600080fd5b82359150611ada602084016116d8565b90509250929050565b60008060408385031215611af657600080fd5b82356001600160401b0380821115611b0d57600080fd5b818501915085601f830112611b2157600080fd5b81356020611b2e8261197a565b604051611b3b828261178c565b83815260059390931b8501820192828101915089841115611b5b57600080fd5b948201945b83861015611b8057611b71866116d8565b82529482019490820190611b60565b96505086013592505080821115611b9657600080fd5b50611ba38582860161199d565b9150509250929050565b600081518084526020808501945080840160005b83811015611bdd57815187529582019590820190600101611bc1565b509495945050505050565b6020815260006116836020830184611bad565b60008060408385031215611c0e57600080fd5b611c17836116d8565b915060208301358015158114611c2c57600080fd5b809150509250929050565b60008060408385031215611c4a57600080fd5b611c53836116d8565b9150611ada602084016116d8565b600060208284031215611c7357600080fd5b81356001600160401b03811115611c8957600080fd5b8201601f81018413611c9a57600080fd5b611ca9848235602084016117ca565b949350505050565b600080600080600060a08688031215611cc957600080fd5b611cd2866116d8565b9450611ce0602087016116d8565b9350604086013592506060860135915060808601356001600160401b03811115611d0957600080fd5b611aaa88828901611827565b600181811c90821680611d2957607f821691505b602082108103611d4957634e487b7160e01b600052602260045260246000fd5b50919050565b601f8211156105c757600081815260208120601f850160051c81016020861015611d765750805b601f850160051c820191505b81811015610db457828155600101611d82565b81516001600160401b03811115611dae57611dae611751565b611dc281611dbc8454611d15565b84611d4f565b602080601f831160018114611df75760008415611ddf5750858301515b600019600386901b1c1916600185901b178555610db4565b600085815260208120601f198616915b82811015611e2657888601518255948401946001909101908401611e07565b5085821015611e445787850151600019600388901b60f8161c191681555b5050505050600190811b01905550565b6020808252602f908201527f455243313135353a2063616c6c6572206973206e6f7420746f6b656e206f776e60408201526e195c881b9bdc88185c1c1c9bdd9959608a1b606082015260800190565b600060208284031215611eb557600080fd5b5051919050565b634e487b7160e01b600052603260045260246000fd5b634e487b7160e01b600052601160045260246000fd5b600060018201611efa57611efa611ed2565b5060010190565b60208082526025908201527f455243313135353a207472616e7366657220746f20746865207a65726f206164604082015264647265737360d81b606082015260800190565b6020808252602a908201527f455243313135353a20696e73756666696369656e742062616c616e636520666f60408201526939103a3930b739b332b960b11b606082015260800190565b808201808211156103d8576103d8611ed2565b604081526000611fb66040830185611bad565b8281036020840152611fc88185611bad565b95945050505050565b7f416363657373436f6e74726f6c3a206163636f756e7420000000000000000000815260008351612009816017850160208801611917565b7001034b99036b4b9b9b4b733903937b6329607d1b601791840191820152835161203a816028840160208801611917565b01602801949350505050565b6001600160a01b0386811682528516602082015260a06040820181905260009061207290830186611bad565b82810360608401526120848186611bad565b90508281036080840152612098818561193b565b98975050505050505050565b6000602082840312156120b657600080fd5b81516116838161171e565b600060033d11156120da5760046000803e5060005160e01c5b90565b600060443d10156120eb5790565b6040516003193d81016004833e81513d6001600160401b03816024840111818411171561211a57505050505090565b82850191508151818111156121325750505050505090565b843d870101602082850101111561214c5750505050505090565b61215b6020828601018761178c565b509095945050505050565b60208082526028908201527f455243313135353a204552433131353552656365697665722072656a656374656040820152676420746f6b656e7360c01b606082015260800190565b6001600160a01b03868116825285166020820152604081018490526060810183905260a0608082018190526000906121e89083018461193b565b979650505050505050565b80820281158282048414176103d8576103d8611ed2565b60008161221957612219611ed2565b50600019019056fea2646970667358221220fbe42c400214eadfae2348582dbf6a9013b2ea5b9d8dbfd5c1c6a727d6e0980364736f6c63430008110033d103eb8903d49642604318d36c6bf1cf6c8d0b805603e82444f0eab3c23aedf1",
    "linkReferences": {}
  },
  "methodIdentifiers": {
    "DEFAULT_ADMIN_ROLE()": "a217fddf",
    "WAVE_REWARDER_ROLE()": "d47a4aad",
    "addWave((uint16,uint16,uint16,uint256,uint256,bytes))": "06814772",
    "balanceOf(address,uint256)": "00fdd58e",
    "balanceOfBatch(address[],uint256[])": "4e1273f4",
    "getRoleAdmin(bytes32)": "248a9ca3",
    "grantRole(bytes32,address)": "2f2ff15d",
    "hasRole(bytes32,address)": "91d14854",
    "isApprovedForAll(address,address)": "e985e9c5",
    "removeWave(uint256)": "280ebc7d",
    "renounceRole(bytes32,address)": "36568abe",
    "revokeRole(bytes32,address)": "d547741f",
    "rewardWave(uint256,address)": "38dde06d",
    "safeBatchTransferFrom(address,address,uint256[],uint256[],bytes)": "2eb2c2d6",
    "safeTransferFrom(address,address,uint256,uint256,bytes)": "f242432a",
    "setApprovalForAll(address,bool)": "a22cb465",
    "supportsInterface(bytes4)": "01ffc9a7",
    "ticket()": "6cc25db7",
    "updateEventJSON(string)": "eec3cb47",
    "uri(uint256)": "0e89341c"
  },
  "id": 17
}